:020000040000FA
:100000006802001069010000710100007301000026
:100010007501000077010000790100000000000078
:100020000000000000000000000000007B01000054
:100030007D010000000000007F0100008101000040
:1000400083010000830100008301000083010000A0
:100050008301000083010000830100008301000090
:100060008301000083010000830100008301000080
:100070008301000083010000830100008301000070
:100080008301000083010000830100008301000060
:100090008301000083010000830100008301000050
:1000A0008301000083010000830100008301000040
:1000B0008301000083010000830100008301000030
:1000C00083010000830100008301000000F002F8BA
:1000D00000F03AF80AA090E8000C82448344AAF1A8
:1000E0000107DA4501D100F02FF8AFF2090EBAE8A6
:1000F0000F0013F0010F18BFFB1A43F0010318475C
:10010000D4010000F4010000103A24BF78C878C17F
:10011000FAD8520724BF30C830C144BF04680C600D
:10012000704700000023002400250026103A28BF55
:1001300078C1FBD8520728BF30C148BF0B60704759
:100140001FB51FBD10B510BD00F02FF81146FFF709
:10015000F7FF00F003FB00F04DF803B4FFF7F2FFE8
:1001600003BC00F055F800000948804709480047E3
:10017000FEE7FEE7FEE7FEE7FEE7FEE7FEE7FEE757
:10018000FEE7FEE704480549034A054B70470000B7
:100190003D050000CD00000068000010680200105E
:1001A00068000010704770477047754600F02CF8E3
:1001B000AE4605006946534620F00700854618B054
:1001C00020B5FFF7DFFFBDE820404FF000064FF0FD
:1001D00000074FF000084FF0000B21F00701AC467C
:1001E000ACE8C009ACE8C009ACE8C009ACE8C0099B
:1001F0008D46704710B50446AFF300802046BDE839
:100200001040FFF7AABF000000487047040000102C
:1002100001491820ABBEFEE726000200704700002F
:1002200070B500F08BF91548006840F008001349DC
:10023000C439C1F8C4001248006820F0F000104929
:1002400008600846006840F05000086007200D492B
:100250000872832008730C48006885084FF4163034
:10026000B5FBF0F40C7008460078201A08710846B7
:10027000007B20F08000087370BD0000C4C00F40F8
:1002800000C0024000C000400000001000BF044950
:10029000097D01F020010029F9D00149087070475B
:1002A00000C0004000B5024603E01078FFF7EEFF03
:1002B000521C10780028F8D100BD002107E0002270
:1002C00000E0521C44F620639A42FAD3491C814252
:1002D000F5D3704750080000000000100400000033
:1002E000080100005408000004000010640200002F
:1002F000240100000000000000000000FFFFFFFFDD
:1003000010B5F7E0F72000F07DFA032000F048FA7E
:1003100048B900BF032000F043FA0028FAD077A0C4
:10032000FFF7C0FFE7E0022000F03AFA48B900BF4B
:10033000022000F035FA0028FAD071A0FFF7B2FFD2
:10034000D9E0012000F02CFA48B900BF012000F0EC
:1003500027FA0028FAD06BA0FFF7A4FFCBE000201B
:1003600000F01EFA48B900BF002000F019FA00287A
:10037000FAD065A0FFF796FFBDE00A20FFF79DFFCA
:10038000FB2000F03FFA032000F00AFA48B900BF52
:10039000032000F005FA0028FAD05CA0FFF782FFE6
:1003A000A9E0022000F0FCF948B900BF022000F0EB
:1003B000F7F90028FAD056A0FFF774FF9BE0012060
:1003C00000F0EEF948B900BF012000F0E9F900287B
:1003D000FAD050A0FFF766FF8DE0002000F0E0F9B2
:1003E00048B900BF002000F0DBF90028FAD04AA08D
:1003F000FFF758FF7FE00A20FFF75FFFFD2000F0C6
:1004000001FA032000F0CCF948B900BF032000F046
:10041000C7F90028FAD041A0FFF744FF6BE00220A3
:1004200000F0BEF948B900BF022000F0B9F9002879
:10043000FAD03BA0FFF736FF5DE0012000F0B0F9F5
:1004400048B900BF012000F0ABF90028FAD035A070
:10045000FFF728FF4FE0002000F0A2F948B900BFE5
:10046000002000F09DF90028FAD02FA0FFF71AFF16
:1004700041E00A20FFF721FFFE2000F0C3F903202E
:1004800000F08EF948B900BF032000F089F9002878
:10049000FAD026A0FFF706FF2DE0022000F080F939
:1004A00048B900BF022000F07BF90028FAD020A054
:1004B000FFF7F8FE1FE0012000F072F948B900BF15
:1004C000012000F06DF90028FAD01AA0FFF7EAFE2B
:1004D00011E0002000F064F948B900BF002000F0EE
:1004E0005FF90028FAD014A0FFF7DCFE03E00A2031
:1004F000FFF7E3FE06E700BF10BD0000310D0A0064
:10050000320D0A00330D0A00410D0A00340D0A00B5
:10051000350D0A00360D0A00420D0A00370D0A009B
:10052000380D0A00390D0A00430D0A002A0D0A0091
:10053000300D0A00230D0A00440D0A0020208149D5
:10054000086000BF7F48006800F040000028F9D034
:1005500003207C499C39086000207B49C1F8A80130
:1005600078490C31086001207649943908600B20E5
:100570007549843108600120091F0860AA2072496A
:100580008C31086055207049C1F88C0000BF6E485E
:100590008830006800F080600028F8D003206A49A5
:1005A00080310860AA206849C1F88C00552066494E
:1005B0008C31086023206449A43108600120091FA0
:1005C0000860AA206049AC3108605520086000BF6F
:1005D0005D48A830006800F480600028F8D003204F
:1005E0005949A0310860AA205749C1F8AC005520EC
:1005F0005549AC31086055485349C4310860002062
:100600005149C1F8C8010846D0F88800C0F301601C
:10061000032860D14B489438006800F0030030B1E3
:10062000012820D0022839D0032853D100E000BF90
:10063000454888300068C0F30E00401C4100424825
:10064000D0F88800C0F30740401CB1FBF0F04049EF
:1006500048433C499C390968C9B2491CB0FBF1F0D8
:100660003C49086036E0384888300068C0F30E0026
:10067000401C41003448D0F88800C0F30740401CBB
:10068000B1FBF0F0344948432E499C390968C9B29E
:10069000491CB0FBF1F02F4908601BE02A48883064
:1006A0000068C0F30E00401C41002748D0F88800C5
:1006B000C0F30740401CB1FBF0F04FF4FA4148434F
:1006C00020499C390968C9B2491CB0FBF1F02149A5
:1006D000086000BF30E01B489438006800F0030059
:1006E00030B1012810D0022819D0032823D100E00E
:1006F00000BF14489C380068C0B2401C1449B1FBCC
:10070000F0F01449086016E00E489C380068C0B24A
:10071000401C1149B1FBF0F00E4908600BE009489C
:100720009C380068C0B2401C4FF4FA41B1FBF0F0B5
:100730000849086000BF00BF43F23A000249086060
:1007400070470000A0C10F4000C00F40DE872804A2
:1007500000093D0000000010001BB700FFF7EEFE8F
:100760004FF0706006490862FFF75AFD05A0FFF7D9
:1007700099FD04E006A0FFF795FDFFF7C1FDF9E73D
:1007800000C009204B45595041440D0A00000000AB
:10079000505245535320414E59204B45590D0A00A4
:1007A000014609B3012916D002290BD0032924D10F
:1007B0001348406B012202EAD07008B10120704753
:1007C0000020FCE70E48406BC0F3807008B10120A8
:1007D000F5E70020F3E70A48406BC0F3407008B12A
:1007E0000120ECE70020EAE70548406BC0F3007009
:1007F00008B10120E3E70020E1E700BFDFE70000E8
:1008000000C009204FF07061104AD163C107C909C7
:100810009163C0F3400149069163C0F380018906EA
:100820009163C0F3C001C9069163C0F300110907C9
:100830009163C0F3401149079163C0F380118907A8
:100840009163C109C90791637047000000C0092086
:0408500000093D005E
:04000005000001698D
:00000001FF
